S00D0000485750574D2E7372656384
S11300000C942A000C94EE020C9415030C943C03FB
S11300100C9463030C948A030C94B1030C94D803DA
S11300200C94FF030C9426040C944D040C94740457
S11300300C949B040C94C2040C94E9040C941005D5
S11300400C9437050C945E050C9485050C94AC0552
S11300500C94D30511241FBECFE5D8E0DEBFCDBF7D
S113006010E0A0E6B0E0ECE0F7E102C005900D92EC
S1130070A236B107D9F710E0A2E6B0E001C01D92A4
S1130080A439B107E1F70E947A060C94840B0C940E
S113009000008130B1F0813020F0823009F03FC09F
S11300A020C083E060E14FEF0E94850183E064E0BB
S11300B04FEF0E94850183E068E04FEF0E948501C5
S11300C0089583E060E24FEF0E94850183E060E4DD
S11300D04FEF0E94850183E060E84FEF0E948501A5
S11300E0089583E060E14FEF0E94850183E064E0BE
S11300F04FEF0E94850183E068E04FEF0E94850185
S113010083E060E24FEF0E94850183E060E44FEFFB
S11301100E94850183E060E84FEF0E948501089505
S1130120813079F1813020F0823009F099C052C0D9
S1130130613031F06130D0F0623009F091C00BC011
S113014083E064E04FEF0E94C40183E068E040E094
S11301500E94C401089583E064E040E00E94C40169
S113016083E068E04FEF0E94C401089583E064E0F7
S113017040E00E94C40183E068E040E00E94C401C2
S11301800895613031F06130D0F0623009F068C018
S11301900BC083E060E440E00E94C40183E060E8B7
S11301A04FEF0E94C401089583E060E44FEF0E9482
S11301B0C40183E060E840E00E94C401089583E044
S11301C060E440E00E94C40183E060E840E00E94F3
S11301D0C4010895613031F0613070F1623009F08A
S11301E03FC015C083E064E04FEF0E94C40183E088
S11301F068E040E00E94C40183E060E440E00E94C3
S1130200C40183E060E84FEF0E94C401089583E0D5
S113021064E040E00E94C40183E068E04FEF0E9484
S1130220C40183E060E44FEF0E94C40183E060E80E
S113023040E00E94C401089583E064E040E00E942D
S1130240C40183E060E440E00E94C40183E068E00C
S113025040E00E94C40183E060E840E00E94C401E1
S1130260089590E061E070E00E94580208958130A2
S113027049F0813028F0823039F0833041F406C0EF
S11302806ABB089567BB089564BB089561BB089574
S1130290813049F0813028F0823039F0833041F4E4
S11302A006C06BBB089568BB089565BB089562BB27
S11302B00895813059F0813028F0823059F083302C
S11302C081F40CC08BB380958BBB089588B3809563
S11302D088BB089585B3809585BB089582B38095C6
S11302E082BB0895813049F0813028F0823039F0A2
S11302F0833049F406C08BB3089588B3089585B359
S1130300089582B3089580E00895442319F04F3F7F
S1130310D1F521C0813069F0813028F0823079F044
S11303208330C9F412C08AB3962F909589238ABB6F
S11303301BC087B3962F9095892387BB19C084B3BC
S1130340962F9095892384BB17C081B3962F9095DF
S1130350892381BB15C0813059F0813028F0823067
S113036059F0833081F40CC08AB3682B6ABB0895BA
S113037087B3682B67BB089584B3682B64BB089567
S113038081B3682B61BB0895442319F04F3FB1F545
S11303901DC0813061F0813028F0823069F08330F3
S11303A069F50FC08BB3609568236BBB089588B360
S11303B06095682368BB089585B36095682365BB21
S11303C0089582B36095682362BB0895813059F023
S11303D0813028F0823059F0833081F40CC08BB323
S11303E0682B6BBB089588B3682B68BB089585B3ED
S11303F0682B65BB089582B3682B62BB0895813076
S113040059F0813028F0823059F0833081F40CC0E7
S11304108BB368276BBB089588B3682768BB0895BE
S113042085B3682765BB089582B3682762BB0895C6
S1130430813051F0813028F0823049F0833069F402
S113044009C089B368230AC086B3682307C083B38D
S1130450682304C080B3682301C060E081E06623A0
S113046009F480E00895AF92CF92DF92EF92FF9269
S11304700F931F9380E091E060E070EA43E020E096
S113048030E008EC10E00F2EF8ECEF2EFF24F02DF6
S1130490CC24DD240F2EFCE3AF2EF02D0E942C087B
S11304A01F910F91FF90EF90DF90CF90AF90089540
S11304B0CF93C82F4330510561057105B9F144301C
S11304C051056105710560F44130510561057105FF
S11304D099F0423051056105710509F04DC019C00C
S11304E0443051056105710571F1453051056105CF
S11304F0710509F041C034C081E090E0A0E0B0E0B3
S11305008093640090936500A0936600B0936700A5
S113051033C082E090E0A0E0B0E080936400909368
S11305206500A0936600B093670026C083E090E066
S1130530A0E0B0E08093640090936500A09366000F
S1130540B093670019C084E090E0A0E0B0E080932D
S1130550640090936500A0936600B09367000CC09C
S113056085E090E0A0E0B0E08093640090936500A3
S1130570A0936600B09367000E947F086C2F70E020
S113058080E090E00E94930A20E030E048EC52E4DE
S11305900E94FF0920E030E04FE753E40E94210B62
S11305A00E94670ADC01CB019BBD8ABD99BD88BD51
S11305B0CF9108958FB780688FBF089581E064E07C
S11305C040E00E9485018BB780628BBF84B7806452
S11305D084BF08958FB78F778FBF08951F920F92AE
S11305E00FB60F9211242F933F934F935F936F9302
S11305F07F938F939F93AF93BF93EF93FF93E09178
S11306008400F09185000995FF91EF91BF91AF911E
S11306109F918F917F916F915F914F913F912F9116
S11306200F900FBE0F901F9018951F920F920FB648
S11306300F9211242F933F934F935F936F937F9364
S11306408F939F93AF93BF93EF93FF93E0918C00AD
S1130650F0918D000995FF91EF91BF91AF919F911A
S11306608F917F916F915F914F913F912F910F9057
S11306700FBE0F901F9018951F920F920FB60F92F6
S113068011242F933F934F935F936F937F938F9393
S11306909F93AF93BF93EF93FF93E0917A00F09110
S11306A07B000995FF91EF91BF91AF919F918F913D
S11306B07F916F915F914F913F912F910F900FBE5A
S11306C00F901F9018951F920F920FB60F9211243E
S11306D02F933F934F935F936F937F938F939F9346
S11306E0AF93BF93EF93FF93E0919200F091930047
S11306F00995FF91EF91BF91AF919F918F917F9158
S11307006F915F914F913F912F910F900FBE0F907A
S11307101F9018951F920F920FB60F9211242F93CA
S11307203F934F935F936F937F938F939F93AF9375
S1130730BF93EF93FF93E0917000F09171000995DE
S1130740FF91EF91BF91AF919F918F917F916F91A5
S11307505F914F913F912F910F900FBE0F901F907B
S113076018951F920F920FB60F9211242F933F9357
S11307704F935F936F937F938F939F93AF93BF93A5
S1130780EF93FF93E0918E00F0918F000995FF9114
S1130790EF91BF91AF919F918F917F916F915F91F5
S11307A04F913F912F910F900FBE0F901F9018956E
S11307B01F920F920FB60F9211242F933F934F93D2
S11307C05F936F937F938F939F93AF93BF93EF93B5
S11307D0FF93E0917600F09177000995FF91EF91F6
S11307E0BF91AF919F918F917F916F915F914F9145
S11307F03F912F910F900FBE0F901F9018951F924D
S11308000F920FB60F9211242F933F934F935F9340
S11308106F937F938F939F93AF93BF93EF93FF93C4
S1130820E0917400F09175000995FF91EF91BF91EB
S1130830AF919F918F917F916F915F914F913F9174
S11308402F910F900FBE0F901F9018951F920F922B
S11308500FB60F9211242F933F934F935F936F938F
S11308607F938F939F93AF93BF93EF93FF93E09105
S11308709000F09191000995FF91EF91BF91AF9194
S11308809F918F917F916F915F914F913F912F91A4
S11308900F900FBE0F901F9018951F920F920FB6D6
S11308A00F9211242F933F934F935F936F937F93F2
S11308B08F939F93AF93BF93EF93FF93E09188003F
S11308C0F09189000995FF91EF91BF91AF919F91AC
S11308D08F917F916F915F914F913F912F910F90E5
S11308E00FBE0F901F9018951F920F920FB60F9284
S11308F011242F933F934F935F936F937F938F9321
S11309009F93AF93BF93EF93FF93E0917C00F0919B
S11309107D000995FF91EF91BF91AF919F918F91C8
S11309207F916F915F914F913F912F910F900FBEE7
S11309300F901F9018951F920F920FB60F921124CB
S11309402F933F934F935F936F937F938F939F93D3
S1130950AF93BF93EF93FF93E0917800F091790008
S11309600995FF91EF91BF91AF919F918F917F91E5
S11309706F915F914F913F912F910F900FBE0F9008
S11309801F9018951F920F920FB60F9211242F9358
S11309903F934F935F936F937F938F939F93AF9303
S11309A0BF93EF93FF93E0916E00F0916F00099570
S11309B0FF91EF91BF91AF919F918F917F916F9133
S11309C05F914F913F912F910F900FBE0F901F9009
S11309D018951F920F920FB60F9211242F933F93E5
S11309E04F935F936F937F938F939F93AF93BF9333
S11309F0EF93FF93E0918A00F0918B000995FF91AA
S1130A00EF91BF91AF919F918F917F916F915F9182
S1130A104F913F912F910F900FBE0F901F901895FB
S1130A201F920F920FB60F9211242F933F934F935F
S1130A305F936F937F938F939F93AF93BF93EF9342
S1130A40FF93E0918600F09187000995FF91EF9163
S1130A50BF91AF919F918F917F916F915F914F91D2
S1130A603F912F910F900FBE0F901F9018951F92DA
S1130A700F920FB60F9211242F933F934F935F93CE
S1130A806F937F938F939F93AF93BF93EF93FF9352
S1130A90E0918000F09181000995FF91EF91BF9161
S1130AA0AF919F918F917F916F915F914F913F9102
S1130AB02F910F900FBE0F901F9018951F920F92B9
S1130AC00FB60F9211242F933F934F935F936F931D
S1130AD07F938F939F93AF93BF93EF93FF93E09193
S1130AE08200F09183000995FF91EF91BF91AF913E
S1130AF09F918F917F916F915F914F913F912F9132
S1130B000F900FBE0F901F9018951F920F920FB663
S1130B100F9211242F933F934F935F936F937F937F
S1130B208F939F93AF93BF93EF93FF93E0917E00D6
S1130B30F0917F000995FF91EF91BF91AF919F9143
S1130B408F917F916F915F914F913F912F910F9072
S1130B500FBE0F901F9018951F920F920FB60F9211
S1130B6011242F933F934F935F936F937F938F93AE
S1130B709F93AF93BF93EF93FF93E0916C00F09139
S1130B806D000995FF91EF91BF91AF919F918F9166
S1130B907F916F915F914F913F912F910F900FBE75
S1130BA00F901F9018951F920F920FB60F92112459
S1130BB02F933F934F935F936F937F938F939F9361
S1130BC0AF93BF93EF93FF93E0917200F0917300A2
S1130BD00995FF91EF91BF91AF919F918F917F9173
S1130BE06F915F914F913F912F910F900FBE0F9096
S1130BF01F901895813069F0813028F0823079F0A7
S1130C008330C1F412C081E060E14FEF0E9485019E
S1130C10089581E060E24FEF0E948501089581E02C
S1130C2060E44FEF0E948501089581E060E84FEF92
S1130C300E9485010895813069F0813028F0823066
S1130C4079F08330C1F412C081E060E14FEF0E947B
S1130C50C401089581E060E24FEF0E94C401089549
S1130C6081E060E44FEF0E94C401089581E060E8F0
S1130C704FEF0E94C4010895813069F0813028F05B
S1130C80823079F08330C1F412C081E060E140E049
S1130C900E94C401089581E060E240E00E94C40122
S1130CA0089581E060E440E00E94C401089581E079
S1130CB060E840E00E94C4010895813061F0813011
S1130CC028F0823069F08330A1F40FC081E060E144
S1130CD00E94FF01089581E060E20E94FF010895EF
S1130CE081E060E40E94FF01089581E060E80E94D1
S1130CF0FF01089582E00E94490080E060E047E03F
S1130D0020E000E0EE24CC240E94A4080E943302D8
S1130D1010E0D1E0C0E0FF2405C0C02F03C0C02F05
S1130D201F2DD1E082E061E00E949000D13011F0EB
S1130D301436B8F41F5FC43610F009C0CD2FDC2F71
S1130D40DF5F8C2F0E943101D436C1F701C0DC2F44
S1130D500E94970882E390E00E94F408CD2FDF2DD3
S1130D60E1CF0C2F01508C2F0E9431010E94970873
S1130D7082E390E00E94F4080A3088F2CECF8130FA
S1130D8069F0813028F0823079F08330C1F412C0E8
S1130D9082E060E140E00E948501089581E064E022
S1130DA040E00E948501089580E064E040E00E94F4
S1130DB08501089580E068E040E00E94850108957F
S1130DC08130E9F0813030F0823061F1833009F014
S1130DD04FC03BC082E060E10E941802813009F0FC
S1130DE048C082E390E00E94A50782E060E10E948F
S1130DF0180291E0813009F443C090E041C081E0E1
S1130E0064E00E9418028130B1F582E390E00E9410
S1130E10A50781E064E00E94180291E0813081F12D
S1130E2090E02EC080E064E00E941802813029F531
S1130E3082E390E00E94A50780E064E00E9418022B
S1130E4091E08130E9F090E01BC080E068E00E940E
S1130E5018028130A1F482E390E00E94A50780E0AB
S1130E6068E00E94180291E0813051F090E008C0DF
S1130E70089590E005C090E003C090E001C090E0C8
S1130E80892F089582BF089582B7089583B7887F14
S1130E9083BF93B780916B00892B83BF089583B779
S1130EA0887F83BF0895EF920F93442319F40E941F
S1130EB04F0748C093B7892B842B83BF40936B00A3
S1130EC022BF603171F0613118F4662331F014C02F
S1130ED0603259F0603381F40CC083B78F7C83BFD8
S1130EE00BC083B7806183BF07C083B7806283BFB1
S1130EF003C083B7806383BF0CBF81E0E81669F049
S1130F00E81620F082E0E816E9F410C010926A00B6
S1130F100E94EA0289B719BE15C081E080936A0075
S1130F200E94DA0289B7816089BF0CC081E0809396
S1130F306A008FB780688FBF89B7816089BF89B71E
S1130F40826089BF0F91EF900895AC0160E070E07A
S1130F50411551056105710589F080E090E0DC01DF
S1130F6008B600FEFDCF28B7216028BF0196A11D59
S1130F70B11D84179507A607B70790F30895DC0100
S1130F80CB010097A105B10531F080EF0E94420723
S1130F900E944407FDCF88B7816088BF0895CF922F
S1130FA0DF92EF92FF92CF93C82F8FEF809363006D
S1130FB06091630070E080E090E00E94930A6B010E
S1130FC07C016C2F70E080E090E00E94930A20E0A6
S1130FD030E048EC52E40E94FF099B01AC01C701D8
S1130FE0B6010E94210B0E94670A609363008091FE
S1130FF06A00882319F0813029F51FC00E94460732
S1131000809163000E94420708B600FEFDCF88B7B6
S1131010816088BF85B38FEF85BB0E9446078091AE
S1131020630080950E94420708B600FEFDCF88B792
S1131030816088BF85B315BA05C00E9446078091B8
S113104063008CBFCF91FF90EF90DF90CF90089515
S113105082B3809582BB0895AF92EF92FF920F9373
S11310601F93D901EA2D2EB53FB5282B392B262BFA
S1131070372B3FBD2EBD50E060E070E0409364002C
S11310805093650060936600709367001BBD0ABDB2
S1131090F9BCE8BCBDBDACBDE830D1F0E93028F402
S11310A0AA2051F0E430F9F40BC0E032A9F0EC339B
S11310B0B9F0E031C1F408C089B7837C89BF13C09B
S11310C089B7846089BF0FC089B7806189BF0BC0AD
S11310D089B7886089BF07C089B7806289BF03C0A8
S11310E089B78C6389BF1F910F91FF90EF90AF90E8
S11310F008959DBD8CBD08958CB59DB508958EB59C
S11311009FB52091640030916500822B932B9FBD85
S11311108EBD08958EB59FB5887F9FBD8EBD089501
S113112008950895089584BD089584B5089585B5F6
S1131130887F85BD95B580916800892B85BD08950C
S113114085B5887F85BD0895CF920F93442319F404
S11311500E94A00846C095B5892B842B85BD409379
S1131160680024BD603171F0613118F4662331F0F8
S113117014C0603259F0603381F40CC085B58F7CA3
S113118085BD0BC085B5806185BD07C085B580620E
S113119085BD03C085B5806385BD03BD80E4C816E5
S11311A061F080E8C81691F0CC20D9F4109269005F
S11311B00E94EA0289B719BE14C081E080936900D5
S11311C00E94DA0289B7806489BF0BC081E08093F2
S11311D069000E94DA0289B7806489BF89B7806890
S11311E089BF0F91CF9008950F931F93CF93DF93EF
S11311F000D000D0CDB7DEB78C011A8219821B82D1
S11312001C82809168008430F9F0853038F4823093
S113121089F08330A0F4813051F507C08630F1F0B5
S11312208630B8F0873019F51EC08AE38B838AE0D4
S11312308C831DC088E08B838CE08C8318C082E093
S11312408B8388E08C8313C081E08B8386E08C835E
S11312500EC081E08B8383E88C8309C081E08B839B
S113126082EC8C8304C081E08B8380EF8C831A82B0
S113127019822B8149815A8130E0029FC001039F6A
S1131280900D129F900D112448175907E0F48C819A
S11312900E94930808B606FEFDCF88B7806488BF15
S11312A089819A8101969A8389832B8149815A8104
S11312B030E0029FC001039F900D129F900D1124F6
S11312C04817590720F30F900F900F900F90DF915C
S11312D0CF911F910F910895CF92DF92EF92FF92D9
S11312E0CF93DF9300D0CDB7DEB76B017C011A82B8
S11312F019821A82198289819A81A0E0B0E08C1542
S11313009D05AE05BF05B8F48EEF0E94930808B69C
S113131006FEFDCF88B7806488BF89819A810196D3
S11313209A83898389819A81A0E0B0E08C159D0518
S1131330AE05BF0548F30F900F90DF91CF91FF905A
S1131340EF90DF90CF900895CF92DF92EF92FF92CB
S1131350CF93C82F8FEF809363006091630070E098
S113136080E090E00E94930A6B017C016C2F70E096
S113137080E090E00E94930A20E030E048EC52E4E0
S11313800E94FF099B01AC01C701B6010E94210B19
S11313900E94670A6093630080916900882319F0B2
S11313A0813029F51FC00E949708809163000E9434
S11313B0930808B602FEFDCF88B7846088BF85B362
S11313C08FEF85BB0E9497088091630080950E94EF
S11313D0930808B602FEFDCF88B7846088BF85B342
S11313E015BA05C00E9497088091630083BDCF9110
S11313F0FF90EF90DF90CF900895089508950CD05A
S1131400E6C0DED040F0D5D030F021F45F3F19F0D3
S1131410C7C0511110C1CAC0EBD098F39923C9F3C6
S11314205523B1F3951B550BBB27AA2762177307E6
S1131430840738F09F5F5F4F220F331F441FAA1F9A
S1131440A9F333D00E2E3AF0E0E830D0915050405A
S1131450E695001CCAF729D0FE2F27D0660F771F08
S1131460881FBB1F261737074807AB07B0E809F0EA
S1131470BB0B802DBF01FF2793585F4F2AF09E3F7F
S1131480510568F08DC0D7C05F3FECF3983EDCF3A4
S1131490869577956795B795F7959F5FC9F7880FF8
S11314A0911D9695879597F90895E1E0660F771F4A
S11314B0881FBB1F621773078407BA0720F0621BDB
S11314C0730B840BBA0BEE1F88F7E095089598D040
S11314D088F09F5790F0B92F9927B751A0F0D1F019
S11314E0660F771F881F991F1AF0BA95C9F712C0A3
S11314F0B13081F09FD0B1E008959CC0672F782F60
S11315008827B85F39F0B93FCCF38695779567950E
S1131510B395D9F73EF490958095709561957F4F7A
S11315208F4F9F4F0895E89409C097FB3EF4909520
S11315308095709561957F4F8F4F9F4F9923A9F0A8
S1131540F92F96E9BB279395F69587957795679537
S1131550B795F111F8CFFAF4BB0F11F460FF1BC07B
S11315606F5F7F4F8F4F9F4F16C0882311F096E90E
S113157011C0772321F09EE8872F762F05C06623BC
S113158071F096E8862F70E060E02AF09A95660F75
S1131590771F881FDAF7880F9695879597F908952E
S11315A097F99F6780E870E060E008959FEF80EC12
S11315B0089500240A9416161706180609060895B5
S11315C000240A9412161306140605060895092E1B
S11315D00394000C11F4882352F0BB0F40F4BF2B8A
S11315E011F460FF04C06F5F7F4F8F4F9F4F0895CA
S11315F057FD9058440F551F59F05F3F71F04795C0
S1131600880F97FB991F61F09F3F79F087950895A4
S1131610121613061406551FF2CF4695F1DF08C0C3
S1131620161617061806991FF1CF869571056105E0
S113163008940895E894BB2766277727CB0197F988
S113164008950BD0C4CFB5DF28F0BADF18F0952386
S113165009F0A6CFABCF1124EECFCADFA0F3959F3C
S1131660D1F3950F50E0551F629FF001729FBB2785
S1131670F00DB11D639FAA27F00DB11DAA1F649F31
S11316806627B00DA11D661F829F2227B00DA11DE4
S1131690621F739FB00DA11D621F839FA00D611D6A
S11316A0221F749F3327A00D611D231F849F600D8B
S11316B0211D822F762F6A2F11249F5750408AF0C4
S11316C0E1F088234AF0EE0FFF1FBB1F661F771F50
S11316D0881F91505040A9F79E3F510570F060CF8C
S11316E0AACF5F3FECF3983EDCF386957795679538
S11316F0B795F795E7959F5FC1F7FE2B880F911D6E
S10F17009695879597F90895F894FFCF0B
S105170C0100D6
S9030000FC
